{
  "contractName": "Exodus",
  "abi": [
    {
      "constant": true,
      "inputs": [],
      "name": "owner",
      "outputs": [
        {
          "name": "",
          "type": "address"
        }
      ],
      "payable": false,
      "stateMutability": "view",
      "type": "function"
    },
    {
      "constant": true,
      "inputs": [],
      "name": "userCounter",
      "outputs": [
        {
          "name": "",
          "type": "uint16"
        }
      ],
      "payable": false,
      "stateMutability": "view",
      "type": "function"
    },
    {
      "inputs": [],
      "payable": false,
      "stateMutability": "nonpayable",
      "type": "constructor"
    },
    {
      "constant": false,
      "inputs": [
        {
          "name": "userid",
          "type": "bytes16"
        }
      ],
      "name": "subscribe",
      "outputs": [],
      "payable": false,
      "stateMutability": "nonpayable",
      "type": "function"
    },
    {
      "constant": false,
      "inputs": [
        {
          "name": "userid",
          "type": "bytes16"
        }
      ],
      "name": "unsubscribe",
      "outputs": [],
      "payable": false,
      "stateMutability": "nonpayable",
      "type": "function"
    },
    {
      "constant": false,
      "inputs": [
        {
          "name": "userid",
          "type": "bytes16"
        },
        {
          "name": "amount",
          "type": "uint32"
        }
      ],
      "name": "increment_balance",
      "outputs": [],
      "payable": false,
      "stateMutability": "nonpayable",
      "type": "function"
    },
    {
      "constant": false,
      "inputs": [
        {
          "name": "userid",
          "type": "bytes16"
        },
        {
          "name": "amount",
          "type": "uint32"
        }
      ],
      "name": "decrement_balance",
      "outputs": [],
      "payable": false,
      "stateMutability": "nonpayable",
      "type": "function"
    },
    {
      "constant": true,
      "inputs": [
        {
          "name": "userid",
          "type": "bytes16"
        }
      ],
      "name": "getBalance",
      "outputs": [
        {
          "name": "",
          "type": "uint256"
        }
      ],
      "payable": false,
      "stateMutability": "view",
      "type": "function"
    }
  ],
  "bytecode": "0x608060405260008060146101000a81548161ffff021916908361ffff16021790555034801561002d57600080fd5b50336000806101000a81548173ffffffffffffffffffffffffffffffffffffffff021916908373ffffffffffffffffffffffffffffffffffffffff16021790555061085d8061007d6000396000f3fe608060405260043610610083576000357c0100000000000000000000000000000000000000000000000000000000900463ffffffff1680630d4dce7e1461008857806323c27aa9146100ea5780636553cfa2146101385780638da5cb5b14610196578063b5df227c146101ed578063ec1f45841461023b578063f0c37a5914610299575b600080fd5b34801561009457600080fd5b506100d4600480360360208110156100ab57600080fd5b8101908080356fffffffffffffffffffffffffffffffff191690602001909291905050506102cc565b6040518082815260200191505060405180910390f35b3480156100f657600080fd5b506101366004803603602081101561010d57600080fd5b8101908080356fffffffffffffffffffffffffffffffff19169060200190929190505050610328565b005b34801561014457600080fd5b506101946004803603604081101561015b57600080fd5b8101908080356fffffffffffffffffffffffffffffffff19169060200190929190803563ffffffff169060200190929190505050610437565b005b3480156101a257600080fd5b506101ab6105c4565b604051808273ffffffffffffffffffffffffffffffffffffffff1673ffffffffffffffffffffffffffffffffffffffff16815260200191505060405180910390f35b3480156101f957600080fd5b506102396004803603602081101561021057600080fd5b8101908080356fffffffffffffffffffffffffffffffff191690602001909291905050506105e9565b005b34801561024757600080fd5b506102976004803603604081101561025e57600080fd5b8101908080356fffffffffffffffffffffffffffffffff19169060200190929190803563ffffffff16906020019092919050505061074e565b005b3480156102a557600080fd5b506102ae61081d565b604051808261ffff1661ffff16815260200191505060405180910390f35b600060016000836fffffffffffffffffffffffffffffffff19166fffffffffffffffffffffffffffffffff1916815260200190815260200160002060000160019054906101000a900463ffffffff1663ffffffff169050919050565b6000151560016000836fffffffffffffffffffffffffffffffff19166fffffffffffffffffffffffffffffffff1916815260200190815260200160002060000160009054906101000a900460ff16151514151561038457600080fd5b6001806000836fffffffffffffffffffffffffffffffff19166fffffffffffffffffffffffffffffffff1916815260200190815260200160002060000160006101000a81548160ff0219169083151502179055506000151560016000836fffffffffffffffffffffffffffffffff19166fffffffffffffffffffffffffffffffff1916815260200190815260200160002060000160009054906101000a900460ff16151514151561043457600080fd5b50565b6000809054906101000a900473ffffffffffffffffffffffffffffffffffffffff1673ffffffffffffffffffffffffffffffffffffffff163373ffffffffffffffffffffffffffffffffffffffff1614151561049257600080fd5b8160016000826fffffffffffffffffffffffffffffffff19166fffffffffffffffffffffffffffffffff1916815260200190815260200160002060000160009054906101000a900460ff1615156104e857600080fd5b8163ffffffff1660016000856fffffffffffffffffffffffffffffffff19166fffffffffffffffffffffffffffffffff1916815260200190815260200160002060000160019054906101000a900463ffffffff1663ffffffff161015151561054f57600080fd5b8160016000856fffffffffffffffffffffffffffffffff19166fffffffffffffffffffffffffffffffff1916815260200190815260200160002060000160018282829054906101000a900463ffffffff160392506101000a81548163ffffffff021916908363ffffffff160217905550505050565b6000809054906101000a900473ffffffffffffffffffffffffffffffffffffffff1681565b6000809054906101000a900473ffffffffffffffffffffffffffffffffffffffff1673ffffffffffffffffffffffffffffffffffffffff163373ffffffffffffffffffffffffffffffffffffffff1614151561064457600080fd5b8060016000826fffffffffffffffffffffffffffffffff19166fffffffffffffffffffffffffffffffff1916815260200190815260200160002060000160009054906101000a900460ff16151561069a57600080fd5b6001806000846fffffffffffffffffffffffffffffffff19166fffffffffffffffffffffffffffffffff1916815260200190815260200160002060000160006101000a81548160ff0219169083151502179055506000151560016000846fffffffffffffffffffffffffffffffff19166fffffffffffffffffffffffffffffffff1916815260200190815260200160002060000160009054906101000a900460ff16151514151561074a57600080fd5b5050565b6000809054906101000a900473ffffffffffffffffffffffffffffffffffffffff1673ffffffffffffffffffffffffffffffffffffffff163373ffffffffffffffffffffffffffffffffffffffff161415156107a957600080fd5b8060016000846fffffffffffffffffffffffffffffffff19166fffffffffffffffffffffffffffffffff1916815260200190815260200160002060000160018282829054906101000a900463ffffffff160192506101000a81548163ffffffff021916908363ffffffff1602179055505050565b600060149054906101000a900461ffff168156fea165627a7a723058206b74afb6146753ba1aa5c4c632bf8af36e4df6f8ef6b8f4ccb7bfcba60fdb0460029",
  "source": "pragma solidity >=0.4.0 <0.8.0;\r\n\r\ncontract Exodus{\r\n\r\n    address public owner;\r\n    uint16 public userCounter = 0;\r\n\r\n    struct User{\r\n        bool subscribe;\r\n        uint32 balance;\r\n    }\r\n\r\n    constructor() public{\r\n        owner = msg.sender;\r\n    }\r\n    //Only Owners can access this fucntion.\r\n    modifier onlyOwner{\r\n        require(msg.sender == owner);\r\n        _;\r\n    }\r\n    //Check the subscription of the user.\r\n    modifier isSubscribed(bytes16 useraddress) {\r\n        require(users[useraddress].subscribe);\r\n        _;\r\n    }\r\n    //Users data is accessible by their addresses\r\n    mapping (bytes16 => User) users; \r\n\r\n    //Users subscription is proesssed by the owners only\r\n    function subscribe(bytes16 userid) public\r\n    {\r\n        require(users[userid].subscribe == false);\r\n        users[userid].subscribe = true;\r\n        require(users[userid].subscribe == false);\r\n    }\r\n    \r\n    function unsubscribe(bytes16 userid) public onlyOwner() isSubscribed(userid)\r\n    {\r\n        users[userid].subscribe = true;\r\n        require(users[userid].subscribe == false);\r\n    }\r\n\r\n    function increment_balance(bytes16 userid, uint32 amount) public onlyOwner() \r\n    {\r\n        users[userid].balance += amount;\r\n    }\r\n\r\n    function decrement_balance(bytes16 userid,uint32 amount) public onlyOwner() isSubscribed(userid)\r\n    {\r\n        require(users[userid].balance >= amount);\r\n        users[userid].balance -= amount;\r\n    }\r\n\r\n    function getBalance(bytes16 userid) public  view returns(uint)\r\n    {\r\n        return(users[userid].balance);\r\n    }\r\n\r\n}",
  "sourcePath": "C:/Users/92337/Documents/TIP Test/TIP-Main/contracts/Exodus.sol",
  "compiler": {
    "name": "solc",
    "version": "0.5.0+commit.1d4f565a.Emscripten.clang"
  },
  "schemaVersion": "3.0.1",
  "updatedAt": "2021-01-18T11:32:44.237Z",
  "devdoc": {
    "methods": {}
  },
  "userdoc": {
    "methods": {}
  }
}