{
  "contractName": "Exodus",
  "abi": [
    {
      "inputs": [],
      "payable": false,
      "stateMutability": "nonpayable",
      "type": "constructor"
    },
    {
      "anonymous": false,
      "inputs": [
        {
          "indexed": false,
          "internalType": "bytes32",
          "name": "txid",
          "type": "bytes32"
        }
      ],
      "name": "transactionCompleted",
      "type": "event"
    },
    {
      "constant": true,
      "inputs": [],
      "name": "owner",
      "outputs": [
        {
          "internalType": "address",
          "name": "",
          "type": "address"
        }
      ],
      "payable": false,
      "stateMutability": "view",
      "type": "function"
    },
    {
      "constant": true,
      "inputs": [],
      "name": "transactionCounter",
      "outputs": [
        {
          "internalType": "uint16",
          "name": "",
          "type": "uint16"
        }
      ],
      "payable": false,
      "stateMutability": "view",
      "type": "function"
    },
    {
      "constant": false,
      "inputs": [
        {
          "internalType": "bytes32",
          "name": "id",
          "type": "bytes32"
        },
        {
          "internalType": "bytes32",
          "name": "userid",
          "type": "bytes32"
        },
        {
          "internalType": "bytes32",
          "name": "date",
          "type": "bytes32"
        },
        {
          "internalType": "bytes8",
          "name": "txtype",
          "type": "bytes8"
        },
        {
          "internalType": "uint256",
          "name": "amount",
          "type": "uint256"
        }
      ],
      "name": "subscribe",
      "outputs": [],
      "payable": false,
      "stateMutability": "nonpayable",
      "type": "function"
    },
    {
      "constant": false,
      "inputs": [
        {
          "internalType": "bytes32",
          "name": "useraddress",
          "type": "bytes32"
        }
      ],
      "name": "unsubscribe",
      "outputs": [],
      "payable": false,
      "stateMutability": "nonpayable",
      "type": "function"
    },
    {
      "constant": false,
      "inputs": [
        {
          "internalType": "bytes32",
          "name": "id",
          "type": "bytes32"
        },
        {
          "internalType": "bytes32",
          "name": "userid",
          "type": "bytes32"
        },
        {
          "internalType": "bytes32",
          "name": "date",
          "type": "bytes32"
        },
        {
          "internalType": "bytes8",
          "name": "txtype",
          "type": "bytes8"
        },
        {
          "internalType": "uint256",
          "name": "amount",
          "type": "uint256"
        }
      ],
      "name": "savePayment",
      "outputs": [],
      "payable": false,
      "stateMutability": "nonpayable",
      "type": "function"
    },
    {
      "constant": false,
      "inputs": [
        {
          "internalType": "bytes32",
          "name": "id",
          "type": "bytes32"
        },
        {
          "internalType": "bytes32",
          "name": "userid",
          "type": "bytes32"
        },
        {
          "internalType": "bytes32",
          "name": "date",
          "type": "bytes32"
        },
        {
          "internalType": "bytes8",
          "name": "txtype",
          "type": "bytes8"
        },
        {
          "internalType": "uint256",
          "name": "amount",
          "type": "uint256"
        }
      ],
      "name": "saveWithdrawal",
      "outputs": [],
      "payable": false,
      "stateMutability": "nonpayable",
      "type": "function"
    },
    {
      "constant": false,
      "inputs": [
        {
          "internalType": "bytes32",
          "name": "id",
          "type": "bytes32"
        },
        {
          "internalType": "bytes32",
          "name": "userid",
          "type": "bytes32"
        },
        {
          "internalType": "bytes32",
          "name": "date",
          "type": "bytes32"
        },
        {
          "internalType": "bytes8",
          "name": "txtype",
          "type": "bytes8"
        },
        {
          "internalType": "uint256",
          "name": "amount",
          "type": "uint256"
        }
      ],
      "name": "saveDisbursement",
      "outputs": [],
      "payable": false,
      "stateMutability": "nonpayable",
      "type": "function"
    },
    {
      "constant": true,
      "inputs": [
        {
          "internalType": "bytes32",
          "name": "id",
          "type": "bytes32"
        }
      ],
      "name": "getTransaction",
      "outputs": [
        {
          "internalType": "bytes8",
          "name": "",
          "type": "bytes8"
        },
        {
          "internalType": "bytes32",
          "name": "",
          "type": "bytes32"
        },
        {
          "internalType": "bytes32",
          "name": "",
          "type": "bytes32"
        },
        {
          "internalType": "uint256",
          "name": "",
          "type": "uint256"
        }
      ],
      "payable": false,
      "stateMutability": "view",
      "type": "function"
    },
    {
      "constant": true,
      "inputs": [
        {
          "internalType": "bytes32",
          "name": "userid",
          "type": "bytes32"
        }
      ],
      "name": "getBalance",
      "outputs": [
        {
          "internalType": "uint256",
          "name": "",
          "type": "uint256"
        }
      ],
      "payable": false,
      "stateMutability": "view",
      "type": "function"
    }
  ],
  "bytecode": "0x608060405260008060146101000a81548161ffff021916908361ffff16021790555034801561002d57600080fd5b50336000806101000a81548173ffffffffffffffffffffffffffffffffffffffff021916908373ffffffffffffffffffffffffffffffffffffffff160217905550610d6d8061007d6000396000f3fe608060405234801561001057600080fd5b50600436106100935760003560e01c80638e739461116100665780638e739461146102065780638fbfcdcd14610248578063a3964fb7146102b9578063df1716921461032a578063f8c601461461039b57610093565b80630d5e84491461009857806314e887e8146101095780634aae13ca1461012f5780638da5cb5b146101bc575b600080fd5b610107600480360360a08110156100ae57600080fd5b81019080803590602001909291908035906020019092919080359060200190929190803577ffffffffffffffffffffffffffffffffffffffffffffffff19169060200190929190803590602001909291905050506103c9565b005b61011161058f565b604051808261ffff1661ffff16815260200191505060405180910390f35b61015b6004803603602081101561014557600080fd5b81019080803590602001909291905050506105a3565b604051808577ffffffffffffffffffffffffffffffffffffffffffffffff191677ffffffffffffffffffffffffffffffffffffffffffffffff1916815260200184815260200183815260200182815260200194505050505060405180910390f35b6101c461067a565b604051808273ffffffffffffffffffffffffffffffffffffffff1673ffffffffffffffffffffffffffffffffffffffff16815260200191505060405180910390f35b6102326004803603602081101561021c57600080fd5b810190808035906020019092919050505061069f565b6040518082815260200191505060405180910390f35b6102b7600480360360a081101561025e57600080fd5b81019080803590602001909291908035906020019092919080359060200190929190803577ffffffffffffffffffffffffffffffffffffffffffffffff19169060200190929190803590602001909291905050506106bf565b005b610328600480360360a08110156102cf57600080fd5b81019080803590602001909291908035906020019092919080359060200190929190803577ffffffffffffffffffffffffffffffffffffffffffffffff19169060200190929190803590602001909291905050506108b5565b005b610399600480360360a081101561034057600080fd5b81019080803590602001909291908035906020019092919080359060200190929190803577ffffffffffffffffffffffffffffffffffffffffffffffff1916906020019092919080359060200190929190505050610a4f565b005b6103c7600480360360208110156103b157600080fd5b8101908080359060200190929190505050610c79565b005b6000809054906101000a900473ffffffffffffffffffffffffffffffffffffffff1673ffffffffffffffffffffffffffffffffffffffff163373ffffffffffffffffffffffffffffffffffffffff161461042257600080fd5b600115156001600086815260200190815260200160002060020160009054906101000a900460ff1615151461045657600080fd5b600180600086815260200190815260200160002060020160006101000a81548160ff0219169083151502179055506000601481819054906101000a900461ffff168092919060010191906101000a81548161ffff021916908361ffff1602179055505060405180608001604052808377ffffffffffffffffffffffffffffffffffffffffffffffff19168152602001848152602001858152602001828152506002600087815260200190815260200160002060008201518160000160006101000a81548167ffffffffffffffff021916908360c01c02179055506020820151816001015560408201518160020155606082015181600301559050507f60be0c33ed4734dcda5838c6b4fc1c063cedaa6ca46ba2896e73326825e180dd856040518082815260200191505060405180910390a15050505050565b600060149054906101000a900461ffff1681565b6000806000806000809054906101000a900473ffffffffffffffffffffffffffffffffffffffff1673ffffffffffffffffffffffffffffffffffffffff163373ffffffffffffffffffffffffffffffffffffffff161461060257600080fd5b6002600086815260200190815260200160002060000160009054906101000a900460c01b60026000878152602001908152602001600020600201546002600088815260200190815260200160002060010154600260008981526020019081526020016000206003015493509350935093509193509193565b6000809054906101000a900473ffffffffffffffffffffffffffffffffffffffff1681565b600060016000838152602001908152602001600020600101549050919050565b6000809054906101000a900473ffffffffffffffffffffffffffffffffffffffff1673ffffffffffffffffffffffffffffffffffffffff163373ffffffffffffffffffffffffffffffffffffffff161461071857600080fd5b600180600086815260200190815260200160002060020160006101000a81548160ff0219169083151502179055506000601481819054906101000a900461ffff168092919060010191906101000a81548161ffff021916908361ffff1602179055505060006001600086815260200190815260200160002060010154905081600160008781526020019081526020016000206001016000828254019250508190555060405180608001604052808477ffffffffffffffffffffffffffffffffffffffffffffffff19168152602001858152602001868152602001838152506002600088815260200190815260200160002060008201518160000160006101000a81548167ffffffffffffffff021916908360c01c021790555060208201518160010155604082015181600201556060820151816003015590505081810160016000878152602001908152602001600020600101541461087657600080fd5b7f60be0c33ed4734dcda5838c6b4fc1c063cedaa6ca46ba2896e73326825e180dd866040518082815260200191505060405180910390a1505050505050565b600015156001600086815260200190815260200160002060020160009054906101000a900460ff161515146108e957600080fd5b600180600086815260200190815260200160002060020160006101000a81548160ff0219169083151502179055506000601481819054906101000a900461ffff168092919060010191906101000a81548161ffff021916908361ffff1602179055505060405180608001604052808377ffffffffffffffffffffffffffffffffffffffffffffffff19168152602001848152602001858152602001828152506002600087815260200190815260200160002060008201518160000160006101000a81548167ffffffffffffffff021916908360c01c02179055506020820151816001015560408201518160020155606082015181600301559050506001600085815260200190815260200160002060020160009054906101000a900460ff16610a1157600080fd5b7f60be0c33ed4734dcda5838c6b4fc1c063cedaa6ca46ba2896e73326825e180dd856040518082815260200191505060405180910390a15050505050565b6000809054906101000a900473ffffffffffffffffffffffffffffffffffffffff1673ffffffffffffffffffffffffffffffffffffffff163373ffffffffffffffffffffffffffffffffffffffff1614610aa857600080fd5b600115156001600086815260200190815260200160002060020160009054906101000a900460ff16151514610adc57600080fd5b600180600086815260200190815260200160002060020160006101000a81548160ff0219169083151502179055506000601481819054906101000a900461ffff168092919060010191906101000a81548161ffff021916908361ffff1602179055505060006001600086815260200190815260200160002060010154905081600160008781526020019081526020016000206001016000828254039250508190555060405180608001604052808477ffffffffffffffffffffffffffffffffffffffffffffffff19168152602001858152602001868152602001838152506002600088815260200190815260200160002060008201518160000160006101000a81548167ffffffffffffffff021916908360c01c0217905550602082015181600101556040820151816002015560608201518160030155905050818103600160008781526020019081526020016000206001015414610c3a57600080fd5b7f60be0c33ed4734dcda5838c6b4fc1c063cedaa6ca46ba2896e73326825e180dd866040518082815260200191505060405180910390a1505050505050565b6000809054906101000a900473ffffffffffffffffffffffffffffffffffffffff1673ffffffffffffffffffffffffffffffffffffffff163373ffffffffffffffffffffffffffffffffffffffff1614610cd257600080fd5b60006001600083815260200190815260200160002060020160006101000a81548160ff021916908315150217905550600015156001600083815260200190815260200160002060020160009054906101000a900460ff16151514610d3557600080fd5b5056fea265627a7a72315820a22facd1a00ed7ffa7a8cba55453bdf93268da3e2aaa364ffa0e5aeebfcdb29564736f6c63430005100032",
  "source": "pragma solidity >=0.4.0 <0.8.0;\n\ncontract Exodus{\n\n    address public owner;\n    uint16 public transactionCounter = 0;\n\n    struct Transaction{\n        bytes8 txtype;\n        bytes32 date;\n        bytes32 userid;\n        uint amount;\n    }\n\n    struct User{\n        bytes32 id;\n        uint balance;\n        bool subscription;\n    }\n\n\n    constructor() public{\n        owner = msg.sender;\n    }\n    //Only Owners can access this fucntion.\n    modifier onlyOwner{\n        require(msg.sender == owner);\n        _;\n    }\n    //Check the subscription of the user.\n    modifier isSubscribed(bytes32 useraddress) {\n        require(users[useraddress].subscription);\n        _;\n    }\n\n    event transactionCompleted(\n        bytes32 txid\n    );\n    //Users data is accessible by their addresses\n    mapping (bytes32 => User) users; \n    mapping (bytes32 => Transaction ) transactions;\n\n    //Users subscription is proesssed by the owners only\n    function subscribe(bytes32 id,bytes32 userid,bytes32 date,bytes8 txtype,uint amount) public\n    {\n        require(users[userid].subscription == false);\n        users[userid].subscription = true;\n        transactionCounter++;\n        transactions[id] = Transaction(txtype, date, userid, amount);\n        require(users[userid].subscription);\n        emit transactionCompleted(id);\n    }\n    \n    function unsubscribe(bytes32 useraddress) public onlyOwner() \n    {\n        users[useraddress].subscription = false;\n        require(users[useraddress].subscription == false);\n    }\n\n    function savePayment(bytes32 id,bytes32 userid,bytes32 date,bytes8 txtype,uint amount) public onlyOwner()\n    {\n        require(users[userid].subscription == true);\n        users[userid].subscription = true;\n        transactionCounter++;\n        transactions[id] = Transaction(txtype, date, userid, amount);\n        emit transactionCompleted(id);\n    }\n    \n    function saveWithdrawal(bytes32 id,bytes32 userid,bytes32 date,bytes8 txtype,uint amount) public onlyOwner()\n    {\n        require(users[userid].subscription == true);\n        users[userid].subscription = true;\n        transactionCounter++;\n        uint temp = users[userid].balance;\n        users[userid].balance -= amount;\n        transactions[id] = Transaction(txtype, date, userid, amount);\n        require(users[userid].balance == (temp - amount));\n        emit transactionCompleted(id);\n    }\n    \n    function saveDisbursement(bytes32 id,bytes32 userid,bytes32 date,bytes8 txtype,uint amount) public onlyOwner()\n    {\n        users[userid].subscription = true;\n        transactionCounter++;\n        uint temp = users[userid].balance;\n        users[userid].balance += amount;\n        transactions[id] = Transaction(txtype, date, userid, amount);\n        require(users[userid].balance == (temp + amount));\n        emit transactionCompleted(id);\n    }\n\n    function getTransaction(bytes32 id) public view onlyOwner() returns (bytes8 ,bytes32 ,bytes32 , uint) \n    {\n        return(transactions[id].txtype,transactions[id].userid,transactions[id].date,transactions[id].amount);\n    }\n    \n\n    function getBalance(bytes32 userid) public  view returns(uint)\n    {\n        return(users[userid].balance);\n    }\n\n}",
  "sourcePath": "/home/abdullah/tipweb-v2/TIP-Main/contracts/Exodus.sol",
  "compiler": {
    "name": "solc",
    "version": "0.5.16+commit.9c3226ce.Emscripten.clang"
  },
  "schemaVersion": "3.3.3",
  "updatedAt": "2021-01-14T11:19:08.510Z",
  "networkType": "ethereum",
  "devdoc": {
    "methods": {}
  },
  "userdoc": {
    "methods": {}
  }
}