{
  "contractName": "Exodus",
  "abi": [
    {
      "constant": true,
      "inputs": [],
      "name": "owner",
      "outputs": [
        {
          "name": "",
          "type": "address"
        }
      ],
      "payable": false,
      "stateMutability": "view",
      "type": "function",
      "signature": "0x8da5cb5b"
    },
    {
      "constant": true,
      "inputs": [],
      "name": "userCounter",
      "outputs": [
        {
          "name": "",
          "type": "uint16"
        }
      ],
      "payable": false,
      "stateMutability": "view",
      "type": "function",
      "signature": "0xf0c37a59"
    },
    {
      "inputs": [],
      "payable": false,
      "stateMutability": "nonpayable",
      "type": "constructor",
      "signature": "constructor"
    },
    {
      "constant": false,
      "inputs": [
        {
          "name": "userid",
          "type": "bytes32"
        }
      ],
      "name": "subscribe",
      "outputs": [],
      "payable": false,
      "stateMutability": "nonpayable",
      "type": "function",
      "signature": "0x2faf44f6"
    },
    {
      "constant": false,
      "inputs": [
        {
          "name": "userid",
          "type": "bytes32"
        }
      ],
      "name": "unsubscribe",
      "outputs": [],
      "payable": false,
      "stateMutability": "nonpayable",
      "type": "function",
      "signature": "0xf8c60146"
    },
    {
      "constant": false,
      "inputs": [
        {
          "name": "userid",
          "type": "bytes32"
        },
        {
          "name": "amount",
          "type": "uint32"
        }
      ],
      "name": "increment_balance",
      "outputs": [],
      "payable": false,
      "stateMutability": "nonpayable",
      "type": "function",
      "signature": "0x4879d9f9"
    },
    {
      "constant": false,
      "inputs": [
        {
          "name": "userid",
          "type": "bytes32"
        },
        {
          "name": "amount",
          "type": "uint32"
        }
      ],
      "name": "decrement_balance",
      "outputs": [],
      "payable": false,
      "stateMutability": "nonpayable",
      "type": "function",
      "signature": "0xe22f2df3"
    },
    {
      "constant": true,
      "inputs": [
        {
          "name": "userid",
          "type": "bytes32"
        }
      ],
      "name": "getBalance",
      "outputs": [
        {
          "name": "",
          "type": "uint256"
        }
      ],
      "payable": false,
      "stateMutability": "view",
      "type": "function",
      "signature": "0x8e739461"
    }
  ],
  "bytecode": "0x608060405260008060146101000a81548161ffff021916908361ffff16021790555034801561002d57600080fd5b50336000806101000a81548173ffffffffffffffffffffffffffffffffffffffff021916908373ffffffffffffffffffffffffffffffffffffffff1602179055506106638061007d6000396000f3fe608060405260043610610083576000357c0100000000000000000000000000000000000000000000000000000000900463ffffffff1680632faf44f6146100885780634879d9f9146100c35780638da5cb5b1461010e5780638e73946114610165578063e22f2df3146101b4578063f0c37a59146101ff578063f8c6014614610232575b600080fd5b34801561009457600080fd5b506100c1600480360360208110156100ab57600080fd5b810190808035906020019092919050505061026d565b005b3480156100cf57600080fd5b5061010c600480360360408110156100e657600080fd5b8101908080359060200190929190803563ffffffff169060200190929190505050610311565b005b34801561011a57600080fd5b506101236103ba565b604051808273ffffffffffffffffffffffffffffffffffffffff1673ffffffffffffffffffffffffffffffffffffffff16815260200191505060405180910390f35b34801561017157600080fd5b5061019e6004803603602081101561018857600080fd5b81019080803590602001909291905050506103df565b6040518082815260200191505060405180910390f35b3480156101c057600080fd5b506101fd600480360360408110156101d757600080fd5b8101908080359060200190929190803563ffffffff169060200190929190505050610415565b005b34801561020b57600080fd5b50610214610530565b604051808261ffff1661ffff16815260200191505060405180910390f35b34801561023e57600080fd5b5061026b6004803603602081101561025557600080fd5b8101908080359060200190929190505050610544565b005b600015156001600083815260200190815260200160002060000160009054906101000a900460ff1615151415156102a357600080fd5b600060016000838152602001908152602001600020905060018160000160006101000a81548160ff021916908315150217905550600115156001600084815260200190815260200160002060000160009054906101000a900460ff16151514151561030d57600080fd5b5050565b6000809054906101000a900473ffffffffffffffffffffffffffffffffffffffff1673ffffffffffffffffffffffffffffffffffffffff163373ffffffffffffffffffffffffffffffffffffffff1614151561036c57600080fd5b806001600084815260200190815260200160002060000160018282829054906101000a900463ffffffff160192506101000a81548163ffffffff021916908363ffffffff1602179055505050565b6000809054906101000a900473ffffffffffffffffffffffffffffffffffffffff1681565b60006001600083815260200190815260200160002060000160019054906101000a900463ffffffff1663ffffffff169050919050565b6000809054906101000a900473ffffffffffffffffffffffffffffffffffffffff1673ffffffffffffffffffffffffffffffffffffffff163373ffffffffffffffffffffffffffffffffffffffff1614151561047057600080fd5b816001600082815260200190815260200160002060000160009054906101000a900460ff1615156104a057600080fd5b8163ffffffff166001600085815260200190815260200160002060000160019054906101000a900463ffffffff1663ffffffff16101515156104e157600080fd5b816001600085815260200190815260200160002060000160018282829054906101000a900463ffffffff160392506101000a81548163ffffffff021916908363ffffffff160217905550505050565b600060149054906101000a900461ffff1681565b6000809054906101000a900473ffffffffffffffffffffffffffffffffffffffff1673ffffffffffffffffffffffffffffffffffffffff163373ffffffffffffffffffffffffffffffffffffffff1614151561059f57600080fd5b806001600082815260200190815260200160002060000160009054906101000a900460ff1615156105cf57600080fd5b600180600084815260200190815260200160002060000160006101000a81548160ff021916908315150217905550600015156001600084815260200190815260200160002060000160009054906101000a900460ff16151514151561063357600080fd5b505056fea165627a7a723058205aaa9eb91d57252015d7e24f3f31d173e592c91ed6b51fe12bdeda89ead557350029",
  "source": "pragma solidity >=0.4.0 <0.8.0;\r\n\r\ncontract Exodus{\r\n\r\n    address public owner;\r\n    uint16 public userCounter = 0;\r\n\r\n    struct User{\r\n        bool subscribe;\r\n        uint32 balance;\r\n    }\r\n\r\n    constructor() public{\r\n        owner = msg.sender;\r\n    }\r\n    //Only Owners can access this fucntion.\r\n    modifier onlyOwner{\r\n        require(msg.sender == owner);\r\n        _;\r\n    }\r\n    //Check the subscription of the user.\r\n    modifier isSubscribed(bytes32 useraddress) {\r\n        require(users[useraddress].subscribe);\r\n        _;\r\n    }\r\n    //Users data is accessible by their addresses\r\n    mapping (bytes32 => User) users; \r\n\r\n    //Users subscription is proesssed by the owners only\r\n    function subscribe(bytes32 userid) public\r\n    {\r\n        require(users[userid].subscribe == false);\r\n        User storage u  = users[userid];\r\n        u.subscribe = true;\r\n        require(users[userid].subscribe == true);\r\n    }\r\n    \r\n    function unsubscribe(bytes32 userid) public onlyOwner() isSubscribed(userid)\r\n    {\r\n        users[userid].subscribe = true;\r\n        require(users[userid].subscribe == false);\r\n    }\r\n\r\n    function increment_balance(bytes32 userid, uint32 amount) public onlyOwner() \r\n    {\r\n        users[userid].balance += amount;\r\n    }\r\n\r\n    function decrement_balance(bytes32 userid,uint32 amount) public onlyOwner() isSubscribed(userid)\r\n    {\r\n        require(users[userid].balance >= amount);\r\n        users[userid].balance -= amount;\r\n    }\r\n\r\n    function getBalance(bytes32 userid) public  view returns(uint)\r\n    {\r\n        return(users[userid].balance);\r\n    }\r\n\r\n}",
  "sourcePath": "C:/Users/92337/Documents/TIP Test/TIP-Main/contracts/Exodus.sol",
  "compiler": {
    "name": "solc",
    "version": "0.5.0+commit.1d4f565a.Emscripten.clang"
  },
  "schemaVersion": "3.0.1",
  "updatedAt": "2021-01-20T10:45:07.695Z",
  "devdoc": {
    "methods": {}
  },
  "userdoc": {
    "methods": {}
  }
}