{
  "contractName": "Exodus",
  "abi": [
    {
      "constant": true,
      "inputs": [],
      "name": "transactionCounter",
      "outputs": [
        {
          "name": "",
          "type": "uint16"
        }
      ],
      "payable": false,
      "stateMutability": "view",
      "type": "function",
      "signature": "0x14e887e8"
    },
    {
      "constant": true,
      "inputs": [],
      "name": "owner",
      "outputs": [
        {
          "name": "",
          "type": "address"
        }
      ],
      "payable": false,
      "stateMutability": "view",
      "type": "function",
      "signature": "0x8da5cb5b"
    },
    {
      "inputs": [],
      "payable": false,
      "stateMutability": "nonpayable",
      "type": "constructor",
      "signature": "constructor"
    },
    {
      "anonymous": false,
      "inputs": [
        {
          "indexed": false,
          "name": "txid",
          "type": "bytes32"
        }
      ],
      "name": "transactionCompleted",
      "type": "event",
      "signature": "0x60be0c33ed4734dcda5838c6b4fc1c063cedaa6ca46ba2896e73326825e180dd"
    },
    {
      "constant": false,
      "inputs": [
        {
          "name": "id",
          "type": "bytes32"
        },
        {
          "name": "userid",
          "type": "bytes32"
        },
        {
          "name": "date",
          "type": "bytes32"
        },
        {
          "name": "txtype",
          "type": "bytes8"
        },
        {
          "name": "amount",
          "type": "uint256"
        }
      ],
      "name": "subscribe",
      "outputs": [],
      "payable": false,
      "stateMutability": "nonpayable",
      "type": "function",
      "signature": "0xa3964fb7"
    },
    {
      "constant": false,
      "inputs": [
        {
          "name": "useraddress",
          "type": "bytes32"
        }
      ],
      "name": "unsubscribe",
      "outputs": [],
      "payable": false,
      "stateMutability": "nonpayable",
      "type": "function",
      "signature": "0xf8c60146"
    },
    {
      "constant": false,
      "inputs": [
        {
          "name": "id",
          "type": "bytes32"
        },
        {
          "name": "userid",
          "type": "bytes32"
        },
        {
          "name": "date",
          "type": "bytes32"
        },
        {
          "name": "txtype",
          "type": "bytes8"
        },
        {
          "name": "amount",
          "type": "uint256"
        }
      ],
      "name": "savePayment",
      "outputs": [],
      "payable": false,
      "stateMutability": "nonpayable",
      "type": "function",
      "signature": "0x0d5e8449"
    },
    {
      "constant": false,
      "inputs": [
        {
          "name": "id",
          "type": "bytes32"
        },
        {
          "name": "userid",
          "type": "bytes32"
        },
        {
          "name": "date",
          "type": "bytes32"
        },
        {
          "name": "txtype",
          "type": "bytes8"
        },
        {
          "name": "amount",
          "type": "uint256"
        }
      ],
      "name": "saveWithdrawal",
      "outputs": [],
      "payable": false,
      "stateMutability": "nonpayable",
      "type": "function",
      "signature": "0xdf171692"
    },
    {
      "constant": false,
      "inputs": [
        {
          "name": "id",
          "type": "bytes32"
        },
        {
          "name": "userid",
          "type": "bytes32"
        },
        {
          "name": "date",
          "type": "bytes32"
        },
        {
          "name": "txtype",
          "type": "bytes8"
        },
        {
          "name": "amount",
          "type": "uint256"
        }
      ],
      "name": "saveDisbursement",
      "outputs": [],
      "payable": false,
      "stateMutability": "nonpayable",
      "type": "function",
      "signature": "0x8fbfcdcd"
    },
    {
      "constant": true,
      "inputs": [
        {
          "name": "id",
          "type": "bytes32"
        }
      ],
      "name": "getTransaction",
      "outputs": [
        {
          "name": "",
          "type": "bytes8"
        },
        {
          "name": "",
          "type": "bytes32"
        },
        {
          "name": "",
          "type": "bytes32"
        },
        {
          "name": "",
          "type": "uint256"
        }
      ],
      "payable": false,
      "stateMutability": "view",
      "type": "function",
      "signature": "0x4aae13ca"
    },
    {
      "constant": true,
      "inputs": [
        {
          "name": "userid",
          "type": "bytes32"
        }
      ],
      "name": "getBalance",
      "outputs": [
        {
          "name": "",
          "type": "uint256"
        }
      ],
      "payable": false,
      "stateMutability": "view",
      "type": "function",
      "signature": "0x8e739461"
    }
  ],
  "bytecode": "0x608060405260008060146101000a81548161ffff021916908361ffff16021790555034801561002d57600080fd5b50336000806101000a81548173ffffffffffffffffffffffffffffffffffffffff021916908373ffffffffffffffffffffffffffffffffffffffff160217905550610e778061007d6000396000f3fe608060405260043610610099576000357c0100000000000000000000000000000000000000000000000000000000900463ffffffff1680630d5e84491461009e57806314e887e81461011c5780634aae13ca1461014f5780638da5cb5b146101e95780638e739461146102405780638fbfcdcd1461028f578063a3964fb71461030d578063df1716921461038b578063f8c6014614610409575b600080fd5b3480156100aa57600080fd5b5061011a600480360360a08110156100c157600080fd5b81019080803590602001909291908035906020019092919080359060200190929190803577ffffffffffffffffffffffffffffffffffffffffffffffff1916906020019092919080359060200190929190505050610444565b005b34801561012857600080fd5b50610131610628565b604051808261ffff1661ffff16815260200191505060405180910390f35b34801561015b57600080fd5b506101886004803603602081101561017257600080fd5b810190808035906020019092919050505061063c565b604051808577ffffffffffffffffffffffffffffffffffffffffffffffff191677ffffffffffffffffffffffffffffffffffffffffffffffff1916815260200184815260200183815260200182815260200194505050505060405180910390f35b3480156101f557600080fd5b506101fe61072d565b604051808273ffffffffffffffffffffffffffffffffffffffff1673ffffffffffffffffffffffffffffffffffffffff16815260200191505060405180910390f35b34801561024c57600080fd5b506102796004803603602081101561026357600080fd5b8101908080359060200190929190505050610752565b6040518082815260200191505060405180910390f35b34801561029b57600080fd5b5061030b600480360360a08110156102b257600080fd5b81019080803590602001909291908035906020019092919080359060200190929190803577ffffffffffffffffffffffffffffffffffffffffffffffff1916906020019092919080359060200190929190505050610772565b005b34801561031957600080fd5b50610389600480360360a081101561033057600080fd5b81019080803590602001909291908035906020019092919080359060200190929190803577ffffffffffffffffffffffffffffffffffffffffffffffff1916906020019092919080359060200190929190505050610986565b005b34801561039757600080fd5b50610407600480360360a08110156103ae57600080fd5b81019080803590602001909291908035906020019092919080359060200190929190803577ffffffffffffffffffffffffffffffffffffffffffffffff1916906020019092919080359060200190929190505050610b3e565b005b34801561041557600080fd5b506104426004803603602081101561042c57600080fd5b8101908080359060200190929190505050610d88565b005b6000809054906101000a900473ffffffffffffffffffffffffffffffffffffffff1673ffffffffffffffffffffffffffffffffffffffff163373ffffffffffffffffffffffffffffffffffffffff1614151561049f57600080fd5b600115156001600086815260200190815260200160002060020160009054906101000a900460ff1615151415156104d557600080fd5b600180600086815260200190815260200160002060020160006101000a81548160ff0219169083151502179055506000601481819054906101000a900461ffff168092919060010191906101000a81548161ffff021916908361ffff160217905550506080604051908101604052808377ffffffffffffffffffffffffffffffffffffffffffffffff19168152602001848152602001858152602001828152506002600087815260200190815260200160002060008201518160000160006101000a81548167ffffffffffffffff02191690837801000000000000000000000000000000000000000000000000900402179055506020820151816001015560408201518160020155606082015181600301559050507f60be0c33ed4734dcda5838c6b4fc1c063cedaa6ca46ba2896e73326825e180dd856040518082815260200191505060405180910390a15050505050565b600060149054906101000a900461ffff1681565b6000806000806000809054906101000a900473ffffffffffffffffffffffffffffffffffffffff1673ffffffffffffffffffffffffffffffffffffffff163373ffffffffffffffffffffffffffffffffffffffff1614151561069d57600080fd5b6002600086815260200190815260200160002060000160009054906101000a900478010000000000000000000000000000000000000000000000000260026000878152602001908152602001600020600201546002600088815260200190815260200160002060010154600260008981526020019081526020016000206003015493509350935093509193509193565b6000809054906101000a900473ffffffffffffffffffffffffffffffffffffffff1681565b600060016000838152602001908152602001600020600101549050919050565b6000809054906101000a900473ffffffffffffffffffffffffffffffffffffffff1673ffffffffffffffffffffffffffffffffffffffff163373ffffffffffffffffffffffffffffffffffffffff161415156107cd57600080fd5b600180600086815260200190815260200160002060020160006101000a81548160ff0219169083151502179055506000601481819054906101000a900461ffff168092919060010191906101000a81548161ffff021916908361ffff160217905550506000600160008681526020019081526020016000206001015490508160016000878152602001908152602001600020600101600082825401925050819055506080604051908101604052808477ffffffffffffffffffffffffffffffffffffffffffffffff19168152602001858152602001868152602001838152506002600088815260200190815260200160002060008201518160000160006101000a81548167ffffffffffffffff0219169083780100000000000000000000000000000000000000000000000090040217905550602082015181600101556040820151816002015560608201518160030155905050818101600160008781526020019081526020016000206001015414151561094757600080fd5b7f60be0c33ed4734dcda5838c6b4fc1c063cedaa6ca46ba2896e73326825e180dd866040518082815260200191505060405180910390a1505050505050565b600015156001600086815260200190815260200160002060020160009054906101000a900460ff1615151415156109bc57600080fd5b600180600086815260200190815260200160002060020160006101000a81548160ff0219169083151502179055506000601481819054906101000a900461ffff168092919060010191906101000a81548161ffff021916908361ffff160217905550506080604051908101604052808377ffffffffffffffffffffffffffffffffffffffffffffffff19168152602001848152602001858152602001828152506002600087815260200190815260200160002060008201518160000160006101000a81548167ffffffffffffffff02191690837801000000000000000000000000000000000000000000000000900402179055506020820151816001015560408201518160020155606082015181600301559050506001600085815260200190815260200160002060020160009054906101000a900460ff161515610b0057600080fd5b7f60be0c33ed4734dcda5838c6b4fc1c063cedaa6ca46ba2896e73326825e180dd856040518082815260200191505060405180910390a15050505050565b6000809054906101000a900473ffffffffffffffffffffffffffffffffffffffff1673ffffffffffffffffffffffffffffffffffffffff163373ffffffffffffffffffffffffffffffffffffffff16141515610b9957600080fd5b600115156001600086815260200190815260200160002060020160009054906101000a900460ff161515141515610bcf57600080fd5b600180600086815260200190815260200160002060020160006101000a81548160ff0219169083151502179055506000601481819054906101000a900461ffff168092919060010191906101000a81548161ffff021916908361ffff160217905550506000600160008681526020019081526020016000206001015490508160016000878152602001908152602001600020600101600082825403925050819055506080604051908101604052808477ffffffffffffffffffffffffffffffffffffffffffffffff19168152602001858152602001868152602001838152506002600088815260200190815260200160002060008201518160000160006101000a81548167ffffffffffffffff02191690837801000000000000000000000000000000000000000000000000900402179055506020820151816001015560408201518160020155606082015181600301559050508181036001600087815260200190815260200160002060010154141515610d4957600080fd5b7f60be0c33ed4734dcda5838c6b4fc1c063cedaa6ca46ba2896e73326825e180dd866040518082815260200191505060405180910390a1505050505050565b6000809054906101000a900473ffffffffffffffffffffffffffffffffffffffff1673ffffffffffffffffffffffffffffffffffffffff163373ffffffffffffffffffffffffffffffffffffffff16141515610de357600080fd5b60006001600083815260200190815260200160002060020160006101000a81548160ff021916908315150217905550600015156001600083815260200190815260200160002060020160009054906101000a900460ff161515141515610e4857600080fd5b5056fea165627a7a72305820b9242fc815dc6167d36f1d92694b792e94bdd4d584b347ea9ff9711aaa93dd5c0029",
  "source": "pragma solidity >=0.4.0 <0.8.0;\r\n\r\ncontract Exodus{\r\n\r\n    address public owner;\r\n    uint16 public transactionCounter = 0;\r\n\r\n    struct Transaction{\r\n        bytes8 txtype;\r\n        bytes32 date;\r\n        bytes32 userid;\r\n        uint amount;\r\n    }\r\n\r\n    struct User{\r\n        bytes32 id;\r\n        uint balance;\r\n        bool subscription;\r\n    }\r\n\r\n\r\n    constructor() public{\r\n        owner = msg.sender;\r\n    }\r\n    //Only Owners can access this fucntion.\r\n    modifier onlyOwner{\r\n        require(msg.sender == owner);\r\n        _;\r\n    }\r\n    //Check the subscription of the user.\r\n    modifier isSubscribed(bytes32 useraddress) {\r\n        require(users[useraddress].subscription);\r\n        _;\r\n    }\r\n\r\n    event transactionCompleted(\r\n        bytes32 txid\r\n    );\r\n    //Users data is accessible by their addresses\r\n    mapping (bytes32 => User) users; \r\n    mapping (bytes32 => Transaction ) transactions;\r\n\r\n    //Users subscription is proesssed by the owners only\r\n    function subscribe(bytes32 id,bytes32 userid,bytes32 date,bytes8 txtype,uint amount) public\r\n    {\r\n        require(users[userid].subscription == false);\r\n        users[userid].subscription = true;\r\n        transactionCounter++;\r\n        transactions[id] = Transaction(txtype, date, userid, amount);\r\n        require(users[userid].subscription);\r\n        emit transactionCompleted(id);\r\n    }\r\n    \r\n    function unsubscribe(bytes32 useraddress) public onlyOwner() \r\n    {\r\n        users[useraddress].subscription = false;\r\n        require(users[useraddress].subscription == false);\r\n    }\r\n\r\n    function savePayment(bytes32 id,bytes32 userid,bytes32 date,bytes8 txtype,uint amount) public onlyOwner()\r\n    {\r\n        require(users[userid].subscription == true);\r\n        users[userid].subscription = true;\r\n        transactionCounter++;\r\n        transactions[id] = Transaction(txtype, date, userid, amount);\r\n        emit transactionCompleted(id);\r\n    }\r\n    \r\n    function saveWithdrawal(bytes32 id,bytes32 userid,bytes32 date,bytes8 txtype,uint amount) public onlyOwner()\r\n    {\r\n        require(users[userid].subscription == true);\r\n        users[userid].subscription = true;\r\n        transactionCounter++;\r\n        uint temp = users[userid].balance;\r\n        users[userid].balance -= amount;\r\n        transactions[id] = Transaction(txtype, date, userid, amount);\r\n        require(users[userid].balance == (temp - amount));\r\n        emit transactionCompleted(id);\r\n    }\r\n    \r\n    function saveDisbursement(bytes32 id,bytes32 userid,bytes32 date,bytes8 txtype,uint amount) public onlyOwner()\r\n    {\r\n        users[userid].subscription = true;\r\n        transactionCounter++;\r\n        uint temp = users[userid].balance;\r\n        users[userid].balance += amount;\r\n        transactions[id] = Transaction(txtype, date, userid, amount);\r\n        require(users[userid].balance == (temp + amount));\r\n        emit transactionCompleted(id);\r\n    }\r\n\r\n    function getTransaction(bytes32 id) public view onlyOwner() returns (bytes8 ,bytes32 ,bytes32 , uint) \r\n    {\r\n        return(transactions[id].txtype,transactions[id].userid,transactions[id].date,transactions[id].amount);\r\n    }\r\n    \r\n\r\n    function getBalance(bytes32 userid) public  view returns(uint)\r\n    {\r\n        return(users[userid].balance);\r\n    }\r\n\r\n}",
  "sourcePath": "C:/Users/92337/Documents/TIP Test/TIP-Main/contracts/Exodus.sol",
  "compiler": {
    "name": "solc",
    "version": "0.5.0+commit.1d4f565a.Emscripten.clang"
  },
  "schemaVersion": "3.0.1",
  "updatedAt": "2021-01-13T15:37:13.659Z",
  "devdoc": {
    "methods": {}
  },
  "userdoc": {
    "methods": {}
  }
}