{
  "contractName": "Exodus",
  "abi": [
    {
      "constant": true,
      "inputs": [],
      "name": "disbursementCounter",
      "outputs": [
        {
          "name": "",
          "type": "uint256"
        }
      ],
      "payable": false,
      "stateMutability": "view",
      "type": "function",
      "signature": "0x4040e2ad"
    },
    {
      "constant": true,
      "inputs": [],
      "name": "paymentCounter",
      "outputs": [
        {
          "name": "",
          "type": "uint16"
        }
      ],
      "payable": false,
      "stateMutability": "view",
      "type": "function",
      "signature": "0x76840b60"
    },
    {
      "constant": true,
      "inputs": [],
      "name": "owner",
      "outputs": [
        {
          "name": "",
          "type": "address"
        }
      ],
      "payable": false,
      "stateMutability": "view",
      "type": "function",
      "signature": "0x8da5cb5b"
    },
    {
      "constant": true,
      "inputs": [],
      "name": "subscriptionCounter",
      "outputs": [
        {
          "name": "",
          "type": "uint256"
        }
      ],
      "payable": false,
      "stateMutability": "view",
      "type": "function",
      "signature": "0x903a8298"
    },
    {
      "inputs": [],
      "payable": false,
      "stateMutability": "nonpayable",
      "type": "constructor",
      "signature": "constructor"
    },
    {
      "constant": false,
      "inputs": [
        {
          "name": "userid",
          "type": "uint256"
        },
        {
          "name": "date",
          "type": "bytes16"
        }
      ],
      "name": "subscribe",
      "outputs": [],
      "payable": false,
      "stateMutability": "nonpayable",
      "type": "function",
      "signature": "0x3ea51acf"
    },
    {
      "constant": false,
      "inputs": [
        {
          "name": "useraddress",
          "type": "uint256"
        }
      ],
      "name": "unsubscribe",
      "outputs": [],
      "payable": false,
      "stateMutability": "nonpayable",
      "type": "function",
      "signature": "0xad0b27fb"
    },
    {
      "constant": false,
      "inputs": [
        {
          "name": "userid",
          "type": "uint256"
        },
        {
          "name": "date",
          "type": "bytes16"
        },
        {
          "name": "amount",
          "type": "uint256"
        }
      ],
      "name": "recievePayments",
      "outputs": [],
      "payable": false,
      "stateMutability": "nonpayable",
      "type": "function",
      "signature": "0xa4593d24"
    },
    {
      "constant": false,
      "inputs": [
        {
          "name": "amount",
          "type": "uint16"
        },
        {
          "name": "userid",
          "type": "uint256"
        },
        {
          "name": "date",
          "type": "bytes16"
        }
      ],
      "name": "disbursePayments",
      "outputs": [],
      "payable": false,
      "stateMutability": "nonpayable",
      "type": "function",
      "signature": "0xbe0c713c"
    },
    {
      "constant": true,
      "inputs": [
        {
          "name": "userid",
          "type": "uint256"
        }
      ],
      "name": "getBalance",
      "outputs": [
        {
          "name": "",
          "type": "uint256"
        }
      ],
      "payable": false,
      "stateMutability": "view",
      "type": "function",
      "signature": "0x1e010439"
    }
  ],
  "bytecode": "0x608060405260008060146101000a81548161ffff021916908361ffff1602179055506000600155600060025534801561003757600080fd5b50336000806101000a81548173ffffffffffffffffffffffffffffffffffffffff021916908373ffffffffffffffffffffffffffffffffffffffff1602179055506108d6806100876000396000f3fe608060405260043610610099576000357c0100000000000000000000000000000000000000000000000000000000900463ffffffff1680631e0104391461009e5780633ea51acf146100ed5780634040e2ad1461014557806376840b60146101705780638da5cb5b146101a3578063903a8298146101fa578063a4593d2414610225578063ad0b27fb14610287578063be0c713c146102c2575b600080fd5b3480156100aa57600080fd5b506100d7600480360360208110156100c157600080fd5b8101908080359060200190929190505050610328565b6040518082815260200191505060405180910390f35b3480156100f957600080fd5b506101436004803603604081101561011057600080fd5b810190808035906020019092919080356fffffffffffffffffffffffffffffffff19169060200190929190505050610348565b005b34801561015157600080fd5b5061015a610490565b6040518082815260200191505060405180910390f35b34801561017c57600080fd5b50610185610496565b604051808261ffff1661ffff16815260200191505060405180910390f35b3480156101af57600080fd5b506101b86104aa565b604051808273ffffffffffffffffffffffffffffffffffffffff1673ffffffffffffffffffffffffffffffffffffffff16815260200191505060405180910390f35b34801561020657600080fd5b5061020f6104cf565b6040518082815260200191505060405180910390f35b34801561023157600080fd5b506102856004803603606081101561024857600080fd5b810190808035906020019092919080356fffffffffffffffffffffffffffffffff19169060200190929190803590602001909291905050506104d5565b005b34801561029357600080fd5b506102c0600480360360208110156102aa57600080fd5b8101908080359060200190929190505050610611565b005b3480156102ce57600080fd5b50610326600480360360608110156102e557600080fd5b81019080803561ffff1690602001909291908035906020019092919080356fffffffffffffffffffffffffffffffff191690602001909291905050506106d4565b005b600060036000838152602001908152602001600020600101549050919050565b600015156003600084815260200190815260200160002060000160009054906101000a900460ff16151514151561037e57600080fd5b60016003600084815260200190815260200160002060000160006101000a81548160ff0219169083151502179055506002600081548092919060010191905055506060604051908101604052806002548152602001826fffffffffffffffffffffffffffffffff19168152602001838152506006600060025481526020019081526020016000206000820151816000015560208201518160010160006101000a8154816fffffffffffffffffffffffffffffffff021916908370010000000000000000000000000000000090040217905550604082015181600201559050506003600083815260200190815260200160002060000160009054906101000a900460ff16151561048c57600080fd5b5050565b60015481565b600060149054906101000a900461ffff1681565b6000809054906101000a900473ffffffffffffffffffffffffffffffffffffffff1681565b60025481565b826003600082815260200190815260200160002060000160009054906101000a900460ff16151561050557600080fd5b6000601481819054906101000a900461ffff168092919060010191906101000a81548161ffff021916908361ffff16021790555050608060405190810160405280600060149054906101000a900461ffff1661ffff168152602001846fffffffffffffffffffffffffffffffff1916815260200185815260200183815250600460008060149054906101000a900461ffff1661ffff1681526020019081526020016000206000820151816000015560208201518160010160006101000a8154816fffffffffffffffffffffffffffffffff021916908370010000000000000000000000000000000090040217905550604082015181600201556060820151816003015590505050505050565b6000809054906101000a900473ffffffffffffffffffffffffffffffffffffffff1673ffffffffffffffffffffffffffffffffffffffff163373ffffffffffffffffffffffffffffffffffffffff1614151561066c57600080fd5b60006003600083815260200190815260200160002060000160006101000a81548160ff021916908315150217905550600015156003600083815260200190815260200160002060000160009054906101000a900460ff1615151415156106d157600080fd5b50565b6000809054906101000a900473ffffffffffffffffffffffffffffffffffffffff1673ffffffffffffffffffffffffffffffffffffffff163373ffffffffffffffffffffffffffffffffffffffff1614151561072f57600080fd5b816003600082815260200190815260200160002060000160009054906101000a900460ff16151561075f57600080fd5b6001600081548092919060010191905055508361ffff16600360008581526020019081526020016000206001016000828254039250508190555060806040519081016040528060015481526020018481526020018561ffff168152602001836fffffffffffffffffffffffffffffffff1916815250600560006001548152602001908152602001600020600082015181600001556020820151816001015560408201518160020160006101000a81548161ffff021916908361ffff16021790555060608201518160020160026101000a8154816fffffffffffffffffffffffffffffffff0219169083700100000000000000000000000000000000900402179055509050508361ffff1660036000858152602001908152602001600020600101540360036000858152602001908152602001600020600101541415156108a457600080fd5b5050505056fea165627a7a723058209ef27f1d1979ae4c7ce51246e79856d52fbada878b1cec05b9a4cd7a695bc6870029",
  "source": "pragma solidity >=0.4.0 <0.8.0;\r\n\r\ncontract Exodus{\r\n\r\n    address public owner;\r\n    uint16 public paymentCounter = 0;\r\n    uint public disbursementCounter = 0;\r\n    uint public subscriptionCounter = 0;\r\n    \r\n    struct User{\r\n        bool subscription;\r\n        uint balance;\r\n    }\r\n\r\n    struct Payment{\r\n        uint id;\r\n        bytes16 date;\r\n        uint userid;\r\n        uint amount;\r\n    }\r\n\r\n    struct Subscription{\r\n        uint id;\r\n        bytes16 date;\r\n        uint userid;\r\n       \r\n    }\r\n\r\n    struct Disbursement{\r\n        uint id;\r\n        uint userid;\r\n        uint16 amount;\r\n        bytes16 date;\r\n    }\r\n\r\n    constructor() public{\r\n        owner = msg.sender;\r\n    }\r\n    //Only Owners can access this fucntion.\r\n    modifier onlyOwner{\r\n        require(msg.sender == owner);\r\n        _;\r\n    }\r\n    //Check the subscription of the user.\r\n    modifier isSubscribed(uint useraddress) {\r\n        require(users[useraddress].subscription);\r\n        _;\r\n    }\r\n\r\n    //Users data is accessible by their addresses\r\n    mapping (uint => User) users;\r\n    mapping (uint => Payment ) payments;\r\n    mapping (uint => Disbursement) disbursements;\r\n    mapping (uint => Subscription) subscriptions;\r\n\r\n    //Users subscription is proesssed by the owners only\r\n    function subscribe(uint userid,bytes16 date) public\r\n    {\r\n        require(users[userid].subscription == false);\r\n        users[userid].subscription = true;\r\n        subscriptionCounter++;\r\n        subscriptions[subscriptionCounter] = Subscription( subscriptionCounter,date, userid);\r\n        require(users[userid].subscription);\r\n    }\r\n    \r\n    function unsubscribe(uint useraddress) public onlyOwner() \r\n    {\r\n        users[useraddress].subscription = false;\r\n        require(users[useraddress].subscription == false);\r\n    }\r\n\r\n    function recievePayments(uint userid,bytes16 date,uint amount) public isSubscribed(userid)\r\n    {\r\n        paymentCounter++;\r\n        payments[paymentCounter] = Payment( paymentCounter,date,userid,amount);\r\n       \r\n    }\r\n \r\n    function disbursePayments(uint16 amount,uint userid,bytes16 date) public  onlyOwner() isSubscribed(userid)\r\n    {\r\n        disbursementCounter++;\r\n        users[userid].balance -= amount;\r\n        disbursements[disbursementCounter] = Disbursement( disbursementCounter, userid ,amount, date);\r\n        require(users[userid].balance == (users[userid].balance - amount));\r\n    }\r\n    \r\n    function getBalance(uint userid) public  view returns(uint)\r\n    {\r\n        return(users[userid].balance);\r\n    }\r\n\r\n}",
  "sourcePath": "C:/Users/92337/Documents/TIP Test/TIP-Main/contracts/Exodus.sol",
  "compiler": {
    "name": "solc",
    "version": "0.5.0+commit.1d4f565a.Emscripten.clang"
  },
  "schemaVersion": "3.0.1",
  "updatedAt": "2020-12-24T06:42:08.226Z",
  "devdoc": {
    "methods": {}
  },
  "userdoc": {
    "methods": {}
  }
}