{
  "contractName": "Exodus",
  "abi": [
    {
      "constant": true,
      "inputs": [],
      "name": "transactionCounter",
      "outputs": [
        {
          "name": "",
          "type": "uint16"
        }
      ],
      "payable": false,
      "stateMutability": "view",
      "type": "function"
    },
    {
      "constant": true,
      "inputs": [],
      "name": "owner",
      "outputs": [
        {
          "name": "",
          "type": "address"
        }
      ],
      "payable": false,
      "stateMutability": "view",
      "type": "function"
    },
    {
      "inputs": [],
      "payable": false,
      "stateMutability": "nonpayable",
      "type": "constructor"
    },
    {
      "constant": false,
      "inputs": [
        {
          "name": "id",
          "type": "bytes32"
        },
        {
          "name": "userid",
          "type": "bytes32"
        },
        {
          "name": "date",
          "type": "bytes32"
        },
        {
          "name": "txtype",
          "type": "bytes32"
        },
        {
          "name": "amount",
          "type": "uint256"
        }
      ],
      "name": "subscribe",
      "outputs": [],
      "payable": false,
      "stateMutability": "nonpayable",
      "type": "function"
    },
    {
      "constant": false,
      "inputs": [
        {
          "name": "useraddress",
          "type": "bytes32"
        }
      ],
      "name": "unsubscribe",
      "outputs": [],
      "payable": false,
      "stateMutability": "nonpayable",
      "type": "function"
    },
    {
      "constant": false,
      "inputs": [
        {
          "name": "id",
          "type": "bytes32"
        },
        {
          "name": "userid",
          "type": "bytes32"
        },
        {
          "name": "date",
          "type": "bytes32"
        },
        {
          "name": "txtype",
          "type": "bytes32"
        },
        {
          "name": "amount",
          "type": "uint256"
        }
      ],
      "name": "savePayment",
      "outputs": [],
      "payable": false,
      "stateMutability": "nonpayable",
      "type": "function"
    },
    {
      "constant": false,
      "inputs": [
        {
          "name": "id",
          "type": "bytes32"
        },
        {
          "name": "userid",
          "type": "bytes32"
        },
        {
          "name": "date",
          "type": "bytes32"
        },
        {
          "name": "txtype",
          "type": "bytes32"
        },
        {
          "name": "amount",
          "type": "uint256"
        }
      ],
      "name": "saveWithdrawal",
      "outputs": [],
      "payable": false,
      "stateMutability": "nonpayable",
      "type": "function"
    },
    {
      "constant": false,
      "inputs": [
        {
          "name": "id",
          "type": "bytes32"
        },
        {
          "name": "userid",
          "type": "bytes32"
        },
        {
          "name": "date",
          "type": "bytes32"
        },
        {
          "name": "txtype",
          "type": "bytes32"
        },
        {
          "name": "amount",
          "type": "uint256"
        }
      ],
      "name": "saveDisbursement",
      "outputs": [],
      "payable": false,
      "stateMutability": "nonpayable",
      "type": "function"
    },
    {
      "constant": true,
      "inputs": [
        {
          "name": "userid",
          "type": "bytes32"
        }
      ],
      "name": "getBalance",
      "outputs": [
        {
          "name": "",
          "type": "uint256"
        }
      ],
      "payable": false,
      "stateMutability": "view",
      "type": "function"
    }
  ],
  "bytecode": "0x608060405260008060146101000a81548161ffff021916908361ffff16021790555034801561002d57600080fd5b50336000806101000a81548173ffffffffffffffffffffffffffffffffffffffff021916908373ffffffffffffffffffffffffffffffffffffffff160217905550610b138061007d6000396000f3fe60806040526004361061008e576000357c0100000000000000000000000000000000000000000000000000000000900463ffffffff16806314e887e81461009357806323332541146100c65780638da5cb5b146101295780638e73946114610180578063bd89389d146101cf578063c4f4889914610232578063dc7a51de14610295578063f8c60146146102f8575b600080fd5b34801561009f57600080fd5b506100a8610333565b604051808261ffff1661ffff16815260200191505060405180910390f35b3480156100d257600080fd5b50610127600480360360a08110156100e957600080fd5b810190808035906020019092919080359060200190929190803590602001909291908035906020019092919080359060200190929190505050610347565b005b34801561013557600080fd5b5061013e61052b565b604051808273ffffffffffffffffffffffffffffffffffffffff1673ffffffffffffffffffffffffffffffffffffffff16815260200191505060405180910390f35b34801561018c57600080fd5b506101b9600480360360208110156101a357600080fd5b8101908080359060200190929190505050610550565b6040518082815260200191505060405180910390f35b3480156101db57600080fd5b50610230600480360360a08110156101f257600080fd5b810190808035906020019092919080359060200190929190803590602001909291908035906020019092919080359060200190929190505050610570565b005b34801561023e57600080fd5b50610293600480360360a081101561025557600080fd5b810190808035906020019092919080359060200190929190803590602001909291908035906020019092919080359060200190929190505050610754565b005b3480156102a157600080fd5b506102f6600480360360a08110156102b857600080fd5b8101908080359060200190929190803590602001909291908035906020019092919080359060200190929190803590602001909291905050506108d2565b005b34801561030457600080fd5b506103316004803603602081101561031b57600080fd5b8101908080359060200190929190505050610a24565b005b600060149054906101000a900461ffff1681565b6000809054906101000a900473ffffffffffffffffffffffffffffffffffffffff1673ffffffffffffffffffffffffffffffffffffffff163373ffffffffffffffffffffffffffffffffffffffff161415156103a257600080fd5b600115156001600086815260200190815260200160002060020160009054906101000a900460ff1615151415156103d857600080fd5b600180600086815260200190815260200160002060020160006101000a81548160ff0219169083151502179055506000601481819054906101000a900461ffff168092919060010191906101000a81548161ffff021916908361ffff1602179055505060006001600086815260200190815260200160002060010154905081600160008781526020019081526020016000206001016000828254019250508190555060a06040519081016040528087815260200184815260200185815260200186815260200183815250600260008060149054906101000a900461ffff1661ffff1681526020019081526020016000206000820151816000015560208201518160010155604082015181600201556060820151816003015560808201518160040155905050818101600160008781526020019081526020016000206001015414151561052357600080fd5b505050505050565b6000809054906101000a900473ffffffffffffffffffffffffffffffffffffffff1681565b600060016000838152602001908152602001600020600101549050919050565b6000809054906101000a900473ffffffffffffffffffffffffffffffffffffffff1673ffffffffffffffffffffffffffffffffffffffff163373ffffffffffffffffffffffffffffffffffffffff161415156105cb57600080fd5b600115156001600086815260200190815260200160002060020160009054906101000a900460ff16151514151561060157600080fd5b600180600086815260200190815260200160002060020160006101000a81548160ff0219169083151502179055506000601481819054906101000a900461ffff168092919060010191906101000a81548161ffff021916908361ffff1602179055505060006001600086815260200190815260200160002060010154905081600160008781526020019081526020016000206001016000828254039250508190555060a06040519081016040528087815260200184815260200185815260200186815260200183815250600260008060149054906101000a900461ffff1661ffff1681526020019081526020016000206000820151816000015560208201518160010155604082015181600201556060820151816003015560808201518160040155905050818103600160008781526020019081526020016000206001015414151561074c57600080fd5b505050505050565b6000809054906101000a900473ffffffffffffffffffffffffffffffffffffffff1673ffffffffffffffffffffffffffffffffffffffff163373ffffffffffffffffffffffffffffffffffffffff161415156107af57600080fd5b600115156001600086815260200190815260200160002060020160009054906101000a900460ff1615151415156107e557600080fd5b600180600086815260200190815260200160002060020160006101000a81548160ff0219169083151502179055506000601481819054906101000a900461ffff168092919060010191906101000a81548161ffff021916908361ffff1602179055505060a06040519081016040528086815260200183815260200184815260200185815260200182815250600260008060149054906101000a900461ffff1661ffff16815260200190815260200160002060008201518160000155602082015181600101556040820151816002015560608201518160030155608082015181600401559050505050505050565b600015156001600086815260200190815260200160002060020160009054906101000a900460ff16151514151561090857600080fd5b600180600086815260200190815260200160002060020160006101000a81548160ff0219169083151502179055506000601481819054906101000a900461ffff168092919060010191906101000a81548161ffff021916908361ffff1602179055505060a06040519081016040528086815260200183815260200184815260200185815260200182815250600260008060149054906101000a900461ffff1661ffff16815260200190815260200160002060008201518160000155602082015181600101556040820151816002015560608201518160030155608082015181600401559050506001600085815260200190815260200160002060020160009054906101000a900460ff161515610a1d57600080fd5b5050505050565b6000809054906101000a900473ffffffffffffffffffffffffffffffffffffffff1673ffffffffffffffffffffffffffffffffffffffff163373ffffffffffffffffffffffffffffffffffffffff16141515610a7f57600080fd5b60006001600083815260200190815260200160002060020160006101000a81548160ff021916908315150217905550600015156001600083815260200190815260200160002060020160009054906101000a900460ff161515141515610ae457600080fd5b5056fea165627a7a723058206045e13b6c890bb25c1ea6ce915aeefc62d668cb5ed88d8346947bfae48b91ff0029",
  "source": "pragma solidity >=0.4.0 <0.8.0;\r\n\r\ncontract Exodus{\r\n\r\n    address public owner;\r\n    uint16 public transactionCounter = 0;\r\n\r\n    struct Transaction{\r\n        bytes32 id;\r\n        bytes32 txtype;\r\n        bytes32 date;\r\n        bytes32 userid;\r\n        uint amount;\r\n    }\r\n\r\n    struct User{\r\n        bytes32 id;\r\n        uint balance;\r\n        bool subscription;\r\n    }\r\n\r\n\r\n    constructor() public{\r\n        owner = msg.sender;\r\n    }\r\n    //Only Owners can access this fucntion.\r\n    modifier onlyOwner{\r\n        require(msg.sender == owner);\r\n        _;\r\n    }\r\n    //Check the subscription of the user.\r\n    modifier isSubscribed(bytes32 useraddress) {\r\n        require(users[useraddress].subscription);\r\n        _;\r\n    }\r\n\r\n    //Users data is accessible by their addresses\r\n    mapping (bytes32 => User) users; \r\n    mapping (uint => Transaction ) transactions;\r\n\r\n    //Users subscription is proesssed by the owners only\r\n    function subscribe(bytes32 id,bytes32 userid,bytes32 date,bytes32 txtype,uint amount) public\r\n    {\r\n        require(users[userid].subscription == false);\r\n        users[userid].subscription = true;\r\n        transactionCounter++;\r\n        transactions[transactionCounter] = Transaction( id,txtype, date, userid, amount);\r\n        require(users[userid].subscription);\r\n    }\r\n    \r\n    function unsubscribe(bytes32 useraddress) public onlyOwner() \r\n    {\r\n        users[useraddress].subscription = false;\r\n        require(users[useraddress].subscription == false);\r\n    }\r\n\r\n    function savePayment(bytes32 id,bytes32 userid,bytes32 date,bytes32 txtype,uint amount) public onlyOwner()\r\n    {\r\n        require(users[userid].subscription == true);\r\n        users[userid].subscription = true;\r\n        transactionCounter++;\r\n        transactions[transactionCounter] = Transaction( id,txtype, date, userid, amount);\r\n    }\r\n    \r\n    function saveWithdrawal(bytes32 id,bytes32 userid,bytes32 date,bytes32 txtype,uint amount) public onlyOwner()\r\n    {\r\n        require(users[userid].subscription == true);\r\n        users[userid].subscription = true;\r\n        transactionCounter++;\r\n        uint temp = users[userid].balance;\r\n        users[userid].balance -= amount;\r\n        transactions[transactionCounter] = Transaction(id,txtype, date, userid, amount);\r\n        require(users[userid].balance == (temp - amount));\r\n    }\r\n    \r\n    function saveDisbursement(bytes32 id,bytes32 userid,bytes32 date,bytes32 txtype,uint amount) public onlyOwner()\r\n    {\r\n        require(users[userid].subscription == true);\r\n        users[userid].subscription = true;\r\n        transactionCounter++;\r\n        uint temp = users[userid].balance;\r\n        users[userid].balance += amount;\r\n        transactions[transactionCounter] = Transaction(id,txtype, date, userid, amount);\r\n        require(users[userid].balance == (temp + amount));\r\n    }\r\n   \r\n    function getBalance(bytes32 userid) public  view returns(uint)\r\n    {\r\n        return(users[userid].balance);\r\n    }\r\n\r\n}",
  "sourcePath": "C:/Users/92337/Documents/TIP Test/TIP-Main/contracts/Exodus.sol",
  "compiler": {
    "name": "solc",
    "version": "0.5.0+commit.1d4f565a.Emscripten.clang"
  },
  "schemaVersion": "3.0.1",
  "updatedAt": "2021-01-07T10:22:28.371Z",
  "devdoc": {
    "methods": {}
  },
  "userdoc": {
    "methods": {}
  }
}