{
  "contractName": "Exodus",
  "abi": [
    {
      "constant": true,
      "inputs": [],
      "name": "transactionCounter",
      "outputs": [
        {
          "name": "",
          "type": "uint16"
        }
      ],
      "payable": false,
      "stateMutability": "view",
      "type": "function"
    },
    {
      "constant": true,
      "inputs": [],
      "name": "owner",
      "outputs": [
        {
          "name": "",
          "type": "address"
        }
      ],
      "payable": false,
      "stateMutability": "view",
      "type": "function"
    },
    {
      "inputs": [],
      "payable": false,
      "stateMutability": "nonpayable",
      "type": "constructor"
    },
    {
      "constant": false,
      "inputs": [
        {
          "name": "userid",
          "type": "bytes32"
        },
        {
          "name": "date",
          "type": "bytes32"
        },
        {
          "name": "txtype",
          "type": "bytes32"
        },
        {
          "name": "amount",
          "type": "uint256"
        }
      ],
      "name": "subscribe",
      "outputs": [],
      "payable": false,
      "stateMutability": "nonpayable",
      "type": "function"
    },
    {
      "constant": false,
      "inputs": [
        {
          "name": "useraddress",
          "type": "bytes32"
        }
      ],
      "name": "unsubscribe",
      "outputs": [],
      "payable": false,
      "stateMutability": "nonpayable",
      "type": "function"
    },
    {
      "constant": false,
      "inputs": [
        {
          "name": "userid",
          "type": "bytes32"
        },
        {
          "name": "date",
          "type": "bytes32"
        },
        {
          "name": "txtype",
          "type": "bytes32"
        },
        {
          "name": "amount",
          "type": "uint256"
        }
      ],
      "name": "savePayment",
      "outputs": [],
      "payable": false,
      "stateMutability": "nonpayable",
      "type": "function"
    },
    {
      "constant": false,
      "inputs": [
        {
          "name": "userid",
          "type": "bytes32"
        },
        {
          "name": "date",
          "type": "bytes32"
        },
        {
          "name": "txtype",
          "type": "bytes32"
        },
        {
          "name": "amount",
          "type": "uint256"
        }
      ],
      "name": "saveWithdrawal",
      "outputs": [],
      "payable": false,
      "stateMutability": "nonpayable",
      "type": "function"
    },
    {
      "constant": false,
      "inputs": [
        {
          "name": "userid",
          "type": "bytes32"
        },
        {
          "name": "date",
          "type": "bytes32"
        },
        {
          "name": "txtype",
          "type": "bytes32"
        },
        {
          "name": "amount",
          "type": "uint256"
        }
      ],
      "name": "saveDisbursements",
      "outputs": [],
      "payable": false,
      "stateMutability": "nonpayable",
      "type": "function"
    },
    {
      "constant": true,
      "inputs": [
        {
          "name": "userid",
          "type": "bytes32"
        }
      ],
      "name": "getBalance",
      "outputs": [
        {
          "name": "",
          "type": "uint256"
        }
      ],
      "payable": false,
      "stateMutability": "view",
      "type": "function"
    }
  ],
  "bytecode": "0x608060405260008060146101000a81548161ffff021916908361ffff16021790555034801561002d57600080fd5b50336000806101000a81548173ffffffffffffffffffffffffffffffffffffffff021916908373ffffffffffffffffffffffffffffffffffffffff160217905550610b378061007d6000396000f3fe60806040526004361061008e576000357c0100000000000000000000000000000000000000000000000000000000900463ffffffff16806314e887e81461009357806339752d4a146100c65780633f1a5a5b1461011f5780638da5cb5b146101785780638e739461146101cf578063a9268d3c1461021e578063f8b1e1f514610277578063f8c60146146102d0575b600080fd5b34801561009f57600080fd5b506100a861030b565b604051808261ffff1661ffff16815260200191505060405180910390f35b3480156100d257600080fd5b5061011d600480360360808110156100e957600080fd5b810190808035906020019092919080359060200190929190803590602001909291908035906020019092919050505061031f565b005b34801561012b57600080fd5b506101766004803603608081101561014257600080fd5b8101908080359060200190929190803590602001909291908035906020019092919080359060200190929190505050610516565b005b34801561018457600080fd5b5061018d61067b565b604051808273ffffffffffffffffffffffffffffffffffffffff1673ffffffffffffffffffffffffffffffffffffffff16815260200191505060405180910390f35b3480156101db57600080fd5b50610208600480360360208110156101f257600080fd5b81019080803590602001909291905050506106a0565b6040518082815260200191505060405180910390f35b34801561022a57600080fd5b506102756004803603608081101561024157600080fd5b81019080803590602001909291908035906020019092919080359060200190929190803590602001909291905050506106c0565b005b34801561028357600080fd5b506102ce6004803603608081101561029a57600080fd5b81019080803590602001909291908035906020019092919080359060200190929190803590602001909291905050506108b7565b005b3480156102dc57600080fd5b50610309600480360360208110156102f357600080fd5b8101908080359060200190929190505050610a48565b005b600060149054906101000a900461ffff1681565b6000809054906101000a900473ffffffffffffffffffffffffffffffffffffffff1673ffffffffffffffffffffffffffffffffffffffff163373ffffffffffffffffffffffffffffffffffffffff1614151561037a57600080fd5b600115156001600086815260200190815260200160002060020160009054906101000a900460ff1615151415156103b057600080fd5b600180600086815260200190815260200160002060020160006101000a81548160ff0219169083151502179055506000601481819054906101000a900461ffff168092919060010191906101000a81548161ffff021916908361ffff1602179055505060006001600086815260200190815260200160002060010154905081600160008781526020019081526020016000206001016000828254019250508190555060a060405190810160405280600060149054906101000a900461ffff1661ffff16815260200184815260200185815260200186815260200183815250600260008060149054906101000a900461ffff1661ffff1681526020019081526020016000206000820151816000015560208201518160010155604082015181600201556060820151816003015560808201518160040155905050818101600160008781526020019081526020016000206001015414151561050f57600080fd5b5050505050565b600015156001600086815260200190815260200160002060020160009054906101000a900460ff16151514151561054c57600080fd5b600180600086815260200190815260200160002060020160006101000a81548160ff0219169083151502179055506000601481819054906101000a900461ffff168092919060010191906101000a81548161ffff021916908361ffff1602179055505060a060405190810160405280600060149054906101000a900461ffff1661ffff16815260200183815260200184815260200185815260200182815250600260008060149054906101000a900461ffff1661ffff16815260200190815260200160002060008201518160000155602082015181600101556040820151816002015560608201518160030155608082015181600401559050506001600085815260200190815260200160002060020160009054906101000a900460ff16151561067557600080fd5b50505050565b6000809054906101000a900473ffffffffffffffffffffffffffffffffffffffff1681565b600060016000838152602001908152602001600020600101549050919050565b6000809054906101000a900473ffffffffffffffffffffffffffffffffffffffff1673ffffffffffffffffffffffffffffffffffffffff163373ffffffffffffffffffffffffffffffffffffffff1614151561071b57600080fd5b600115156001600086815260200190815260200160002060020160009054906101000a900460ff16151514151561075157600080fd5b600180600086815260200190815260200160002060020160006101000a81548160ff0219169083151502179055506000601481819054906101000a900461ffff168092919060010191906101000a81548161ffff021916908361ffff1602179055505060006001600086815260200190815260200160002060010154905081600160008781526020019081526020016000206001016000828254039250508190555060a060405190810160405280600060149054906101000a900461ffff1661ffff16815260200184815260200185815260200186815260200183815250600260008060149054906101000a900461ffff1661ffff168152602001908152602001600020600082015181600001556020820151816001015560408201518160020155606082015181600301556080820151816004015590505081810360016000878152602001908152602001600020600101541415156108b057600080fd5b5050505050565b6000809054906101000a900473ffffffffffffffffffffffffffffffffffffffff1673ffffffffffffffffffffffffffffffffffffffff163373ffffffffffffffffffffffffffffffffffffffff1614151561091257600080fd5b600115156001600086815260200190815260200160002060020160009054906101000a900460ff16151514151561094857600080fd5b600180600086815260200190815260200160002060020160006101000a81548160ff0219169083151502179055506000601481819054906101000a900461ffff168092919060010191906101000a81548161ffff021916908361ffff1602179055505060a060405190810160405280600060149054906101000a900461ffff1661ffff16815260200183815260200184815260200185815260200182815250600260008060149054906101000a900461ffff1661ffff168152602001908152602001600020600082015181600001556020820151816001015560408201518160020155606082015181600301556080820151816004015590505050505050565b6000809054906101000a900473ffffffffffffffffffffffffffffffffffffffff1673ffffffffffffffffffffffffffffffffffffffff163373ffffffffffffffffffffffffffffffffffffffff16141515610aa357600080fd5b60006001600083815260200190815260200160002060020160006101000a81548160ff021916908315150217905550600015156001600083815260200190815260200160002060020160009054906101000a900460ff161515141515610b0857600080fd5b5056fea165627a7a72305820e5e5db139400083b30dac40e0e4c00df4e23674c8701a308087567952962eb690029",
  "source": "pragma solidity >=0.4.0 <0.8.0;\r\n\r\ncontract Exodus{\r\n\r\n    address public owner;\r\n    uint16 public transactionCounter = 0;\r\n\r\n    struct Transaction{\r\n        uint id;\r\n        bytes32 txtype;\r\n        bytes32 date;\r\n        bytes32 userid;\r\n        uint amount;\r\n    }\r\n\r\n    struct User{\r\n        bytes32 id;\r\n        uint balance;\r\n        bool subscription;\r\n        uint txCount;\r\n    }\r\n\r\n\r\n    constructor() public{\r\n        owner = msg.sender;\r\n    }\r\n    //Only Owners can access this fucntion.\r\n    modifier onlyOwner{\r\n        require(msg.sender == owner);\r\n        _;\r\n    }\r\n    //Check the subscription of the user.\r\n    modifier isSubscribed(bytes32 useraddress) {\r\n        require(users[useraddress].subscription);\r\n        _;\r\n    }\r\n\r\n    //Users data is accessible by their addresses\r\n    mapping (bytes32 => User) users; \r\n    mapping (uint => Transaction ) transactions;\r\n\r\n    //Users subscription is proesssed by the owners only\r\n    function subscribe(bytes32 userid,bytes32 date,bytes32 txtype,uint amount) public\r\n    {\r\n        require(users[userid].subscription == false);\r\n        users[userid].subscription = true;\r\n        transactionCounter++;\r\n        transactions[transactionCounter] = Transaction( transactionCounter,txtype, date, userid, amount);\r\n        require(users[userid].subscription);\r\n    }\r\n    \r\n    function unsubscribe(bytes32 useraddress) public onlyOwner() \r\n    {\r\n        users[useraddress].subscription = false;\r\n        require(users[useraddress].subscription == false);\r\n    }\r\n\r\n    function savePayment(bytes32 userid,bytes32 date,bytes32 txtype,uint amount) public onlyOwner()\r\n    {\r\n        require(users[userid].subscription == true);\r\n        users[userid].subscription = true;\r\n        transactionCounter++;\r\n        transactions[transactionCounter] = Transaction( transactionCounter,txtype, date, userid, amount);\r\n    }\r\n    \r\n    function saveWithdrawal(bytes32 userid,bytes32 date,bytes32 txtype,uint amount) public onlyOwner()\r\n    {\r\n        require(users[userid].subscription == true);\r\n        users[userid].subscription = true;\r\n        transactionCounter++;\r\n        uint temp = users[userid].balance;\r\n        users[userid].balance -= amount;\r\n        transactions[transactionCounter] = Transaction( transactionCounter,txtype, date, userid, amount);\r\n        require(users[userid].balance == (temp - amount));\r\n    }\r\n    \r\n    function saveDisbursements(bytes32 userid,bytes32 date,bytes32 txtype,uint amount) public onlyOwner()\r\n    {\r\n        require(users[userid].subscription == true);\r\n        users[userid].subscription = true;\r\n        transactionCounter++;\r\n        uint temp = users[userid].balance;\r\n        users[userid].balance += amount;\r\n        transactions[transactionCounter] = Transaction( transactionCounter,txtype, date, userid, amount);\r\n        require(users[userid].balance == (temp + amount));\r\n    }\r\n   \r\n    function getBalance(bytes32 userid) public  view returns(uint)\r\n    {\r\n        return(users[userid].balance);\r\n    }\r\n\r\n}",
  "sourcePath": "C:/Users/92337/Documents/TIP Test/TIP-Main/contracts/Exodus.sol",
  "compiler": {
    "name": "solc",
    "version": "0.5.0+commit.1d4f565a.Emscripten.clang"
  },
  "schemaVersion": "3.0.1",
  "updatedAt": "2021-01-05T08:20:45.339Z",
  "devdoc": {
    "methods": {}
  },
  "userdoc": {
    "methods": {}
  }
}